{
  "contractName": "Greeter",
  "abi": [
    {
      "constant": false,
      "inputs": [],
      "name": "kill",
      "outputs": [],
      "payable": false,
      "stateMutability": "nonpayable",
      "type": "function"
    },
    {
      "constant": true,
      "inputs": [],
      "name": "greet",
      "outputs": [
        {
          "name": "",
          "type": "string"
        }
      ],
      "payable": false,
      "stateMutability": "view",
      "type": "function"
    },
    {
      "inputs": [
        {
          "name": "_greeting",
          "type": "string"
        }
      ],
      "payable": false,
      "stateMutability": "nonpayable",
      "type": "constructor"
    }
  ],
  "bytecode": "0x6060604052341561000f57600080fd5b6040516103a93803806103a983398101604052808051820191905050336000806101000a81548173ffffffffffffffffffffffffffffffffffffffff021916908373ffffffffffffffffffffffffffffffffffffffff1602179055508060019080519060200190610081929190610088565b505061012d565b828054600181600116156101000203166002900490600052602060002090601f016020900481019282601f106100c957805160ff19168380011785556100f7565b828001600101855582156100f7579182015b828111156100f65782518255916020019190600101906100db565b5b5090506101049190610108565b5090565b61012a91905b8082111561012657600081600090555060010161010e565b5090565b90565b61026d8061013c6000396000f30060606040526004361061004c576000357c0100000000000000000000000000000000000000000000000000000000900463ffffffff16806341c0e1b514610051578063cfae321714610066575b600080fd5b341561005c57600080fd5b6100646100f4565b005b341561007157600080fd5b610079610185565b6040518080602001828103825283818151815260200191508051906020019080838360005b838110156100b957808201518184015260208101905061009e565b50505050905090810190601f1680156100e65780820380516001836020036101000a031916815260200191505b509250505060405180910390f35b6000809054906101000a900473ffffffffffffffffffffffffffffffffffffffff1673ffffffffffffffffffffffffffffffffffffffff163373ffffffffffffffffffffffffffffffffffffffff161415610183576000809054906101000a900473ffffffffffffffffffffffffffffffffffffffff1673ffffffffffffffffffffffffffffffffffffffff16ff5b565b61018d61022d565b60018054600181600116156101000203166002900480601f0160208091040260200160405190810160405280929190818152602001828054600181600116156101000203166002900480156102235780601f106101f857610100808354040283529160200191610223565b820191906000526020600020905b81548152906001019060200180831161020657829003601f168201915b5050505050905090565b6020604051908101604052806000815250905600a165627a7a72305820028651b83862c49e79358a3b176495c6d897440ba0564dbdd1c4cbb31474009b0029",
  "source": "pragma solidity ^0.4.0;\n\nimport \"./Mortal.sol\";\n\ncontract Greeter is Mortal {\n    string greeting;\n\n    function Greeter(string _greeting) public {\n        greeting = _greeting;\n    }\n\n    function greet() constant returns (string) {\n        return greeting;\n    }\n}\n",
  "sourcePath": "/home/chenyang/Blockchain/SmartContractDemo/Greeter/contracts/Greeter.sol",
  "compiler": {
    "name": "solc",
    "version": "0.4.18+commit.9cf6e910.Emscripten.clang"
  },
  "schemaVersion": "1.0.1",
  "updatedAt": "2018-01-08T03:33:13.985Z"
}